:020000040000FA
:060000000A128A110C280F
:10000800FE00030EF6000A08F7000A128A11682893
:100018000A128A110F2883010A128A1113288316DB
:10002800031306148614061586150810881108127D
:10003800061201178B170B16831203130810881169
:1000480008120A128A11B7200A128A11831203139E
:1000580086192F28302851280616023083120313D8
:10006800A5004530A400A930A300A30B3928A40B90
:100078003928A50B3928831203130612023083127C
:100088000313A5004530A400A930A300A30B4A28F8
:10009800A40B4A28A50B4A282A280A128A119F204D
:1000A8000A128A110B3083120313A5002630A4000C
:1000B8005D30A300A30B5E28A40B5E28A50B5E2869
:1000C80025280A128A110C288B1C6B286C28982862
:1000D80083120313081686197228732879280A12BE
:1000E8008A11CF200A128A1187280B30F500263092
:1000F800F4005D30F300F30B7F28F40B7F28F50B39
:100108007F28862873288312031308120230F5000B
:100118004530F400A930F300F30B9028F40B902835
:10012800F50B902897288B1077088A00760E8300A5
:10013800FE0E7E0E0900AF288815023083120313C5
:10014800A2004530A100A930A000A00BA928A10B4E
:10015800A928A20BA92883120313061DB428B528C1
:10016800A02888110800C728081402308312031336
:10017800A2004530A100A930A000A00BC128A10B06
:10018800C128A20BC12883120313861CCC28CD28B2
:10019800B82808100800DE2808140230F20045309C
:1001A800F100A930F000F00BD728F10BD728F20B9B
:1001B800D728DE2883120313861CE328E428D028D6
:0401C8000810080013
:00000001FF
