:020000040000FA
:060000000A128A11FA2F1A
:100F10007808FF3EF80079080318013EFF3EF9000B
:100F200008007808013EF80079080318013E003EE9
:100F3000F90008008312031308140230F200043091
:100F4000F100BA30F000F00BA32FF10BA32FF20B3E
:100F5000A32F0000831203130810F801F901080001
:100F600083160313071408108312031308100710C5
:100F7000F601F70183120313071CBF2FC02FC52FE3
:100F80000A128A1191270A128A1183120313871CED
:100F9000CA2FCB2FD02F0A128A1188270A128A1142
:100FA0000A3076067704031DD62FD72FDC2F0A12BE
:100FB0008A119A270A128A110A3076067704031DCD
:100FC000E22FE32FBA2F8312031308140230F50027
:100FD0000430F400BA30F300F30BEC2FF40BEC2FD9
:100FE000F50BEC2F0000831203130810B82F0A1220
:100FF0008A110028F801F90183010A128A11B02F21
:00000001FF
