:020000040000FA
:100000006C28FF30A000FF30A100A00B08280B28AF
:10001000A10B082803280800071601200120071259
:100020008D28080008108810081188110120060882
:10003000061E1C29122808000810881008118811B3
:1000400001200608061E1C291C280800081088101C
:100050000811881101200608061E1C292628080000
:10006000081088100811881101200608061E1C2996
:10007000302808000810881008118811012006088F
:10008000061E1C293A28080008108810081188113B
:1000900001200608061E1C294428080008108810A4
:1000A0000811881101200608061E1C294E28080088
:1000B000081088100811881101200608061E1C2946
:1000C000582808000814881008118815012006080F
:1000D000061E1C2962280800850186018701880107
:1000E0008901831603131F3086000030870000301B
:1000F0008800073089000030810090308B0000308C
:100100008C0000308D0007309F0007309C000030CD
:100110009D008001800183120313081088100811CC
:1001200088110608861C9B280608061D9C280608C0
:10013000861D9D288D289E288D288D2808148810BE
:100140000811881101200608861CAB28061D1329FA
:10015000861D12209E28081088140811881101207D
:100160000608861CB828061D9E28861D1C20AB2864
:10017000081488140811881101200608861CC52857
:10018000061DAB28861D2620B828081088100815E3
:10019000881101200608861CD228061DB828861D55
:1001A0003020C52808148810081588110120060879
:1001B000861CDF28061DC528861D3A20D228081077
:1001C00088140815881101200608861CEC28061DD5
:1001D000D228861D4420DF280814881408158811A9
:1001E00001200608861CF928061DDF28861D4E20E2
:1001F000EC28081088100811881501200608861CB4
:100200000629061DEC28861D5820F9280814881098
:100210000811881501200608861C1329061DF928D7
:10022000861D6220062908108810081188110120F7
:100230000608861C9E2813290814881008118811A6
:1002400001200608061E292901200608061E1C2971
:100250000C28081088140811881101200608061EB1
:10026000362901200608061E29290C28081488149E
:100270000811881101200608061E432901200608DE
:10028000061E36290C280810881008158811012030
:100290000608061E502901200608061E43290C28C0
:1002A000081488100815881101200608061E5D290B
:1002B00001200608061E50290C280810881408156D
:1002C000881101200608061E6A2901200608061E5C
:1002D0005D290C28081488140815881101200608C7
:1002E000061E772901200608061E6A290C28081018
:1002F00088100811881501200608061E842901208F
:100300000608061E77290C2808148810081188157D
:0C031000012001200608061E84290C288C
:04031C000034003475
:02400E00393F38
:00000001FF
